:100000000C945D000C9485000C9485000C94850084
:100010000C9485000C9485000C9485000C9485004C
:100020000C9485000C9485000C9485000C9485003C
:100030000C9485000C9485000C9485000C9485002C
:100040000C9402050C9485000C9472050C944C05DC
:100050000C9485000C9485000C9485000C9485000C
:100060000C9485000C9485000000000024002700FB
:100070002A0000000000250028002B0004040404CE
:100080000404040402020202020203030303030342
:10009000010204081020408001020408102001021F
:1000A00004081020000000080002010000030407FB
:1000B0000000000000000000A40511241FBECFEFC7
:1000C000D8E0DEBFCDBF11E0A0E0B1E0ECE2F3E1AB
:1000D00002C005900D92A834B107D9F722E0A8E438
:1000E000B1E001C01D92AE30B207E1F710E0CDE5FE
:1000F000D0E004C02197FE010E948909CC35D107C8
:10010000C9F70E94EE050C9494090C94000090E04D
:10011000FC01EC55FF4F2491FC01E057FF4F349157
:10012000FC01E458FF4FE491EE2309F43CC0222384
:1001300039F1233091F038F42130A9F0223001F563
:1001400084B58F7D12C0273091F02830A1F0243083
:10015000B9F4809180008F7D03C0809180008F77FB
:10016000809380000DC084B58F7784BD09C08091D5
:10017000B0008F7703C08091B0008F7D8093B00076
:10018000F0E0EE0FFF1FEE58FF4FA591B4919FB71F
:10019000F894611104C08C913095382302C0EC9121
:1001A0003E2B3C939FBF0895CF93DF9390E0FC01DB
:1001B000E057FF4F2491FC01E458FF4F84918823BE
:1001C00061F190E0880F991FFC01E859FF4FC5913C
:1001D000D491FC01EE58FF4FA591B491611109C073
:1001E0009FB7F8948881209582238883EC912E23F1
:1001F0000BC0623061F49FB7F8948881322F30953C
:1002000083238883EC912E2B2C939FBF06C08FB73E
:10021000F894E8812E2B28838FBFDF91CF9108952A
:100220003FB7F8948091550190915601A0915701E4
:10023000B091580126B5A89B05C02F3F19F0019633
:10024000A11DB11D3FBFBA2FA92F982F8827820F5C
:10025000911DA11DB11DBC01CD0142E0660F771FAC
:10026000881F991F4A95D1F708958F929F92AF9258
:10027000BF92CF92DF92EF92FF926B017C010E94BE
:1002800010014B015C01C114D104E104F104F1F04F
:100290000E941001DC01CB0188199909AA09BB0948
:1002A000883E9340A105B10570F321E0C21AD10840
:1002B000E108F10888EE880E83E0981EA11CB11CAD
:1002C000C114D104E104F10419F7DDCFFF90EF90E0
:1002D000DF90CF90BF90AF909F908F900895CF9276
:1002E000DF92EF92FF920F931F93CF93DF936C01F6
:1002F0007A018B01C0E0D0E0CE15DF0581F0D80196
:100300006D918D01D601ED91FC910190F081E02D70
:10031000C6010995892B11F02196EECF7E01C70108
:10032000DF91CF911F910F91FF90EF90DF90CF90D1
:100330000895FC01538D448D252F30E0842F90E0EB
:10034000821B930B541710F0CF96089501970895D0
:10035000FC01918D828D981761F0828DDF01A80FCD
:10036000B11D5D968C91928D9F5F9F73928F90E0EF
:1003700008958FEF9FEF0895FC01918D828D98175E
:1003800031F0828DE80FF11D858D90E008958FEF9B
:100390009FEF0895FC01918D228D892F90E0805C64
:1003A0009F4F821B91098F739927089589E591E0EA
:1003B0000E94CA0121E0892B09F420E0822F0895D0
:1003C000FC01848DDF01A80FB11DA35ABF4F2C91F2
:1003D000848D90E001968F739927848FA689B789C1
:1003E0002C93A089B1898C91837080648C93938DB8
:1003F000848D981306C00288F389E02D80818F7D5B
:1004000080830895EF92FF920F931F93CF93DF9312
:10041000EC0181E0888F9B8D8C8D981305C0E88955
:10042000F989808185FD26C0F62E0B8D10E00F5FC7
:100430001F4F0F731127E02E8C8DE8120CC00FB6E2
:1004400007FCFACFE889F989808185FFF5CFCE01D5
:100450000E94E001F1CF8B8DFE01E80FF11DE35A00
:10046000FF4FF0829FB7F8940B8FEA89FB89808158
:1004700080620AC09FB7F894EE89FF896083E8899B
:10048000F98980818370806480839FBF81E090E0E0
:10049000DF91CF911F910F91FF90EF900895CF932F
:1004A000DF93EC01888D8823C9F0EA89FB8980817C
:1004B00085FD05C0A889B9898C9186FD0FC00FB64E
:1004C00007FCF5CF808185FFF2CFA889B9898C918F
:1004D00085FFEDCFCE010E94E001E7CFDF91CF9104
:1004E000089580E090E0892B29F00E94D6018111C7
:1004F0000C9400000895CF93DF93EC0160E08E81AF
:100500000E94870061E08E810E94870060E08E81FA
:100510000E9487008BE891E00197F1F7DF91CF917E
:100520000895CF92DF92EF92FF920F931F93CF9394
:10053000DF936C017C0187E0E80EF11CC0E0D0E0A5
:10054000062F10E0B8010C2E02C0759567950A942D
:10055000E2F76170F70181917F010E948700219687
:10056000C430D10579F7C601DF91CF911F910F916A
:10057000FF90EF90DF90CF900C947B02CF92DF92B0
:10058000EF92FF920F931F93CF93DF93EC01F62E20
:10059000642F8C810E9487008D818F3F19F060E06D
:1005A0000E9487008F850F2D10E084FF25C06E010B
:1005B00087E0C80ED11CE12CF12CB8010E2C02C032
:1005C000759567950A94E2F76170F60181916F0164
:1005D0000E948700FFEFEF1AFF0A88E0E816F10497
:1005E00061F7CE01DF91CF911F910F91FF90EF90B6
:1005F000DF90CF900C947B02B80184E075956795ED
:100600008A95E1F7CE010E9491026F2DCE01DF9114
:10061000CF911F910F91FF90EF90DF90CF900C94AE
:10062000910240E0682F86EF91E00C94BE02CF93D8
:10063000DF93823028F09091050298609093050234
:100640008093090210920A0280E480930B0280E1F9
:1006500080930C0280E580930D0261E08091FA01A5
:100660000E94D4008091FB018F3F19F061E00E944D
:10067000D40061E08091FC010E94D400C6EFD1E07B
:100680009E01265F31408091050284FD03C084E015
:1006900090E002C088E090E02196281739072CF4FA
:1006A00061E08E810E94D400EBCF8BE39DE0019747
:1006B000F1F760E08091FA010E94870060E080918C
:1006C000FC010E9487008091FB018F3F19F060E0E0
:1006D0000E9487008091050284FD20C063E086EFC0
:1006E00091E00E949102CBE4D6E4CE010197F1F7AC
:1006F00063E086EF91E00E9491022197F1F763E0B9
:1007000086EF91E00E94910283E592E00197F1F774
:1007100062E086EF91E00E94910215C080620E9423
:1007200011038BE496E40197F1F780910502806252
:100730000E94110383E592E00197F1F78091050291
:1007400080620E9411038091050280620E94110361
:1007500084E0809306028CE00E94110381E00E94F5
:1007600011038BE39FE10197F1F782E08093070289
:1007700086E0DF91CF910C94110341E00E94BE020C
:1007800081E090E00895089580E090E0089500975A
:1007900069F0FC0101900020E9F73197AF01481B97
:1007A000590BBC0186EF91E00C946F0180E090E062
:1007B00008952F923F924F925F926F927F928F9205
:1007C0009F92AF92BF92CF92DF92EF92FF920F93E0
:1007D0001F93CF93DF93CDB7DEB7A5970FB6F894ED
:1007E000DEBF0FBECDBF4B015C01F42E9B01AC01FF
:1007F0000E946209882319F08EE191E027C024014C
:100800003501E89477F82FEF3FEF4FE75FE7C3013B
:10081000B2010E94620981110DC02FEF3FEF4FE737
:100820005FE7C301B2010E94980718161CF482E228
:1008300091E00CC02FEF3FEF4FE75FE4C501B4013B
:100840000E94F00818162CF486E291E00E94C7037B
:10085000BEC02FEF3FEF4FE75FECC501B4010E9430
:10086000980787FDF1CF20E030E0A901C501B40170
:100870000E94980787FF0FC041E06DE286EF91E08C
:100880000E94BE02B7FAB094B7F8B09481E090E04D
:100890009BA38AA302C01BA21AA210E060E070E032
:1008A00080E09FE3F11641F020E030E040E251E4C7
:1008B0000E949D071F5FF6CFA50194010E942C079F
:1008C0004B015C010E940F08762EC72ED82EE92E10
:1008D00019A2262F372F482F592F8E010F5D1F4F3A
:1008E0000CA3612E9AE0292E312C412C512CCA01E7
:1008F000B901A20191010E946709605DF80162934C
:100900008F01211531054105510589F7CF010E945D
:10091000C7030AA11BA1080F191FFF2009F456C025
:10092000672D7C2D8D2D9E2D0E943E089B01AC01D4
:10093000C501B4010E942B074B015C0141E06EE24E
:1009400086EF91E00E94BE020F5F1F4F8AE0282EC3
:10095000312C412C512C20E030E040E251E4C50123
:10096000B4010E94F5084B015C010E940F089B0135
:1009700040E050E019A2CCA0D62C762E3AA34DA38D
:10098000E52ECA01B901A20191010E946709605DCB
:10099000F60162936F01211531054105510589F773
:1009A000CF010E94C703080F191F672D7AA18DA1DF
:1009B0009E2D0E943E089B01AC01C501B4010E941E
:1009C0002B074B015C01FA94F110C5CFC801A59625
:1009D0000FB6F894DEBF0FBECDBFDF91CF911F9150
:1009E0000F91FF90EF90DF90CF90BF90AF909F90CE
:1009F0008F907F906F905F904F903F902F900895D1
:100A00000E948F091F920F920FB60F9211242F93FD
:100A10003F938F939F93AF93BF9380915101909198
:100A20005201A0915301B09154013091500123E043
:100A3000230F2D3720F40196A11DB11D05C026E816
:100A4000230F0296A11DB11D2093500180935101E7
:100A500090935201A0935301B0935401809155019A
:100A600090915601A0915701B09158010196A11D96
:100A7000B11D8093550190935601A0935701B093F7
:100A80005801BF91AF919F918F913F912F910F90FE
:100A90000FBE0F901F9018951F920F920FB60F92D6
:100AA00011242F933F934F935F936F937F938F9373
:100AB0009F93AF93BF93EF93FF9389E591E00E94DB
:100AC000E001FF91EF91BF91AF919F918F917F9145
:100AD0006F915F914F913F912F910F900FBE0F90AB
:100AE0001F9018951F920F920FB60F9211242F93FB
:100AF0008F939F93EF93FF93E0916901F0916A01C7
:100B00008081E0916F01F091700182FD12C09081AF
:100B1000809172018F5F8F7320917301821751F062
:100B2000E0917201F0E0E75AFE4F958F80937201D9
:100B300001C08081FF91EF919F918F912F910F9034
:100B40000FBE0F901F901895E9E5F1E01382128215
:100B500088EE93E0A0E0B0E084839583A683B7831A
:100B600084E091E09183808385EC90E09587848791
:100B700084EC90E09787868780EC90E0918B808B67
:100B800081EC90E0938B828B82EC90E0958B848B50
:100B900086EC90E0978B868B118E128E138E148EBE
:100BA000E6EFF1E01382128286E191E09183808387
:100BB0008CE084838FEF85838BE0868385E0878359
:100BC00084E0808783E0818782E0828713861486B1
:100BD00015861686178681E00C941703789484B5E1
:100BE000826084BD84B5816084BD85B5826085BD29
:100BF00085B5816085BD80916E00816080936E00B7
:100C000010928100809181008260809381008091A8
:100C10008100816080938100809180008160809359
:100C200080008091B10084608093B1008091B00019
:100C300081608093B00080917A00846080937A0014
:100C400080917A00826080937A0080917A0081603E
:100C500080937A0080917A00806880937A00109265
:100C6000C10060E08EE00E94D40061E088E00E9454
:100C7000D400E0916901F0916A0182E08083E09103
:100C80006501F09166011082E0916701F0916801C1
:100C90008FEC808310927101E0916D01F0916E01F3
:100CA00086E08083E0916B01F0916C01808180612E
:100CB0008083E0916B01F0916C018081886080837A
:100CC000E0916B01F0916C01808180688083E091FC
:100CD0006B01F0916C0180818F7D808382E00E94A6
:100CE000170364EF71E080E090E00E943501C0E4FA
:100CF000C0937C0080917A00806480937A00809118
:100D00007A0086FDFCCF609178008091790070E0D8
:100D1000782B072E000C880B990B0E94400820E0CE
:100D200030E04AEF53E40E94F50820E030EC4FE752
:100D300054E40E949D076B017C0160934C01709309
:100D40004D0180934E0190934F0126E636E646EE24
:100D50005FE30E94F50820E030E040E052E40E94AA
:100D60002C07609348017093490180934A01909346
:100D70004B0120E030E048EE51E4C701B6010E948B
:100D8000F00887FD0EC061E088E00E94870060EDFA
:100D900077E080E090E00E94350160E088E00E940A
:100DA000870020E030E040EC51E4C701B6010E942A
:100DB0009807181674F061E088E00E94870068EEDA
:100DC00073E080E090E00E94350160E088E00E94DE
:100DD0008700E1E0809109028111E0E0E195F0E017
:100DE000EA50FE4F848980680E9411038AE291E0F4
:100DF0000E94C70360914C0170914D0180914E019A
:100E000090914F0142E00E94D903E0910902E23043
:100E100010F4E15001C0E1E0F0E0EA50FE4F8489B7
:100E200080680E94110388E391E00E94C7036091EB
:100E300048017091490180914A0190914B0142E033
:100E40000E94D90368EE73E080E090E00E943501D3
:100E50000E9471024DCF5058BB27AA270E9443071A
:100E60000C94B6080E94A80838F00E94AF0820F041
:100E700039F49F3F19F426F40C94A5080EF4E0957C
:100E8000E7FB0C949F08E92F0E94C70858F3BA1794
:100E9000620773078407950720F079F4A6F50C9490
:100EA000E9080EF4E0950B2EBA2FA02D0B01B90125
:100EB00090010C01CA01A0011124FF27591B99F0D0
:100EC000593F50F4503E68F11A16F040A22F232FDC
:100ED000342F4427585FF3CF469537952795A7952C
:100EE000F0405395C9F77EF41F16BA0B620B730BD3
:100EF000840BBAF09150A1F0FF0FBB1F661F771F44
:100F0000881FC2F70EC0BA0F621F731F841F48F4F8
:100F1000879577956795B795F7959E3F08F0B0CF81
:100F20009395880F08F09927EE0F97958795089568
:100F30000E947B0808F481E008950E94B1070C9498
:100F4000B6080E94AF0858F00E94A80840F029F4A3
:100F50005F3F29F00C949F0851110C94EA080C94FF
:100F6000A5080E94C70868F39923B1F3552391F3AC
:100F7000951B550BBB27AA2762177307840738F008
:100F80009F5F5F4F220F331F441FAA1FA9F335D065
:100F90000E2E3AF0E0E832D091505040E695001C19
:100FA000CAF72BD0FE2F29D0660F771F881FBB1FD3
:100FB000261737074807AB07B0E809F0BB0B802DB1
:100FC000BF01FF2793585F4F3AF09E3F510578F0DD
:100FD0000C949F080C94EA085F3FE4F3983ED4F326
:100FE000869577956795B795F7959F5FC9F7880FB1
:100FF000911D9695879597F90895E1E0660F771F03
:10100000881FBB1F621773078407BA0720F0621B93
:10101000730B840BBA0BEE1F88F7E09508950E94BE
:10102000CF0888F09F5798F0B92F9927B751B0F0A3
:10103000E1F0660F771F881F991F1AF0BA95C9F75C
:1010400014C0B13091F00E94E908B1E008950C9409
:10105000E908672F782F8827B85F39F0B93FCCF3BC
:10106000869577956795B395D9F73EF490958095D9
:10107000709561957F4F8F4F9F4F0895E89409C0F9
:1010800097FB3EF490958095709561957F4F8F4FBB
:101090009F4F9923A9F0F92F96E9BB279395F695D1
:1010A000879577956795B795F111F8CFFAF4BB0F4F
:1010B00011F460FF1BC06F5F7F4F8F4F9F4F16C0B3
:1010C000882311F096E911C0772321F09EE8872F3D
:1010D000762F05C0662371F096E8862F70E060E0F9
:1010E0002AF09A95660F771F881FDAF7880F969572
:1010F000879597F90895990F0008550FAA0BE0E816
:10110000FEEF16161706E807F907C0F012161306C9
:10111000E407F50798F0621B730B840B950B39F409
:101120000A2661F0232B242B252B21F408950A266F
:1011300009F4A140A6958FEF811D811D089597F9AF
:101140009F6780E870E060E008959FEF80EC08956D
:1011500000240A9416161706180609060895002496
:101160000A9412161306140605060895092E039410
:10117000000C11F4882352F0BB0F40F4BF2B11F484
:1011800060FF04C06F5F7F4F8F4F9F4F089557FDE3
:101190009058440F551F59F05F3F71F04795880FE5
:1011A00097FB991F61F09F3F79F08795089512167C
:1011B00013061406551FF2CF4695F1DF08C0161628
:1011C00017061806991FF1CF8695710561050894D9
:1011D0000895E894BB2766277727CB0197F90895F0
:1011E0000E947B0808F48FEF08950E9408090C9470
:1011F000B6080E94A80838F00E94AF0820F0952396
:1012000011F00C949F080C94A50811240C94EA0882
:101210000E94C70870F3959FC1F3950F50E0551FCA
:10122000629FF001729FBB27F00DB11D639FAA273B
:10123000F00DB11DAA1F649F6627B00DA11D661F8A
:10124000829F2227B00DA11D621F739FB00DA11DAB
:10125000621F839FA00D611D221F749F3327A00D65
:10126000611D231F849F600D211D822F762F6A2F01
:1012700011249F5750409AF0F1F088234AF0EE0F66
:10128000FF1FBB1F661F771F881F91505040A9F793
:101290009E3F510580F00C949F080C94EA085F3F34
:1012A000E4F3983ED4F3869577956795B795F795CF
:1012B000E7959F5FC1F7FE2B880F911D9695879547
:1012C00097F908950E947B08880B990B0895A1E275
:1012D0001A2EAA1BBB1BFD010DC0AA1FBB1FEE1FB0
:1012E000FF1FA217B307E407F50720F0A21BB30BFB
:1012F000E40BF50B661F771F881F991F1A9469F777
:1013000060957095809590959B01AC01BD01CF01D2
:101310000895EE0FFF1F0590F491E02D099481E0F0
:0C13200090E0F8940C949409F894FFCF2E
:10132C000000000002026F0199014F02CA01A801DE
:10133C00BC0100000000BD036F01C403C3036E6158
:10134C006E00696E66006F766600496E20446567B4
:10135C0072656543203D2000496E204661687265C8
:08136C006E686569743D200004
:107E0000112484B714BE81FFF0D085E080938100F7
:107E100082E08093C00088E18093C10086E0809377
:107E2000C20080E18093C4008EE0C9D0259A86E02C
:107E300020E33CEF91E0309385002093840096BBD3
:107E4000B09BFECF1D9AA8958150A9F7CC24DD24C4
:107E500088248394B5E0AB2EA1E19A2EF3E0BF2EE7
:107E6000A2D0813461F49FD0082FAFD0023811F036
:107E7000013811F484E001C083E08DD089C08234E0
:107E800011F484E103C0853419F485E0A6D080C0E4
:107E9000853579F488D0E82EFF2485D0082F10E0AE
:107EA000102F00270E291F29000F111F8ED06801E7
:107EB0006FC0863521F484E090D080E0DECF843638
:107EC00009F040C070D06FD0082F6DD080E0C81688
:107ED00080E7D80618F4F601B7BEE895C0E0D1E017
:107EE00062D089930C17E1F7F0E0CF16F0E7DF06D8
:107EF00018F0F601B7BEE89568D007B600FCFDCFD4
:107F0000A601A0E0B1E02C9130E011968C91119780
:107F100090E0982F8827822B932B1296FA010C0160
:107F200087BEE89511244E5F5F4FF1E0A038BF0790
:107F300051F7F601A7BEE89507B600FCFDCF97BE46
:107F4000E89526C08437B1F42ED02DD0F82E2BD052
:107F50003CD0F601EF2C8F010F5F1F4F84911BD097
:107F6000EA94F801C1F70894C11CD11CFA94CF0C13
:107F7000D11C0EC0853739F428D08EE10CD085E9AC
:107F80000AD08FE07ACF813511F488E018D01DD067
:107F900080E101D065CF982F8091C00085FFFCCF94
:107FA0009093C60008958091C00087FFFCCF809118
:107FB000C00084FD01C0A8958091C6000895E0E648
:107FC000F0E098E1908380830895EDDF803219F02E
:107FD00088E0F5DFFFCF84E1DECF1F93182FE3DFCA
:107FE0001150E9F7F2DF1F91089580E0E8DFEE27F6
:047FF000FF270994CA
:027FFE00040479
:0400000300007E007B
:00000001FF
